{"abi":[{"type":"constructor","inputs":[],"stateMutability":"nonpayable"},{"type":"function","name":"amm","inputs":[],"outputs":[{"name":"","type":"address","internalType":"address"}],"stateMutability":"view"},{"type":"function","name":"balanceOf","inputs":[{"name":"","type":"address","internalType":"address"}],"outputs":[{"name":"","type":"uint256","internalType":"uint256"}],"stateMutability":"view"},{"type":"function","name":"burn","inputs":[{"name":"from","type":"address","internalType":"address"},{"name":"amount","type":"uint256","internalType":"uint256"}],"outputs":[],"stateMutability":"nonpayable"},{"type":"function","name":"decimals","inputs":[],"outputs":[{"name":"","type":"uint8","internalType":"uint8"}],"stateMutability":"view"},{"type":"function","name":"mint","inputs":[{"name":"to","type":"address","internalType":"address"},{"name":"amount","type":"uint256","internalType":"uint256"}],"outputs":[],"stateMutability":"nonpayable"},{"type":"function","name":"name","inputs":[],"outputs":[{"name":"","type":"string","internalType":"string"}],"stateMutability":"view"},{"type":"function","name":"symbol","inputs":[],"outputs":[{"name":"","type":"string","internalType":"string"}],"stateMutability":"view"},{"type":"function","name":"totalSupply","inputs":[],"outputs":[{"name":"","type":"uint256","internalType":"uint256"}],"stateMutability":"view"}],"bytecode":{"object":"0x60806040526040518060400160405280600c81526020017f414d4d204c5020546f6b656e00000000000000000000000000000000000000008152505f90816100479190610347565b506040518060400160405280600381526020017f414c5000000000000000000000000000000000000000000000000000000000008152506001908161008c9190610347565b50601260025f6101000a81548160ff021916908360ff1602179055503480156100b3575f5ffd5b503360045f6101000a81548173ffffffffffffffffffffffffffffffffffffffff021916908373ffffffffffffffffffffffffffffffffffffffff160217905550610416565b5f81519050919050565b7f4e487b71000000000000000000000000000000000000000000000000000000005f52604160045260245ffd5b7f4e487b71000000000000000000000000000000000000000000000000000000005f52602260045260245ffd5b5f600282049050600182168061017457607f821691505b60208210810361018757610186610130565b5b50919050565b5f819050815f5260205f209050919050565b5f6020601f8301049050919050565b5f82821b905092915050565b5f600883026101e97fffffffffffffffffffffffffffffffffffffffffffffffffffffffffffffffff826101ae565b6101f386836101ae565b95508019841693508086168417925050509392505050565b5f819050919050565b5f819050919050565b5f61023761023261022d8461020b565b610214565b61020b565b9050919050565b5f819050919050565b6102508361021d565b61026461025c8261023e565b8484546101ba565b825550505050565b5f5f905090565b61027b61026c565b610286818484610247565b505050565b5f5b828110156102ac576102a15f828401610273565b60018101905061028d565b505050565b601f8211156102ff57828211156102fe576102cb8161018d565b6102d48361019f565b6102dd8561019f565b60208610156102ea575f90505b8083016102f98284038261028b565b505050505b5b505050565b5f82821c905092915050565b5f61031f5f1984600802610304565b1980831691505092915050565b5f6103378383610310565b9150826002028217905092915050565b610350826100f9565b67ffffffffffffffff81111561036957610368610103565b5b610373825461015d565b61037e8282856102b1565b5f60209050601f8311600181146103af575f841561039d578287015190505b6103a7858261032c565b86555061040e565b601f1984166103bd8661018d565b5f5b828110156103e4578489015182556001820191506020850194506020810190506103bf565b8683101561040157848901516103fd601f891682610310565b8355505b6001600288020188555050505b505050505050565b6109d9806104235f395ff3fe608060405234801561000f575f5ffd5b5060043610610086575f3560e01c806340c10f191161005957806340c10f191461010257806370a082311461011e57806395d89b411461014e5780639dc29fac1461016c57610086565b806306fdde031461008a57806318160ddd146100a85780632a943945146100c6578063313ce567146100e4575b5f5ffd5b610092610188565b60405161009f91906105dd565b60405180910390f35b6100b0610213565b6040516100bd9190610615565b60405180910390f35b6100ce610219565b6040516100db919061066d565b60405180910390f35b6100ec61023e565b6040516100f991906106a1565b60405180910390f35b61011c60048036038101906101179190610712565b610250565b005b61013860048036038101906101339190610750565b61034e565b6040516101459190610615565b60405180910390f35b610156610363565b60405161016391906105dd565b60405180910390f35b61018660048036038101906101819190610712565b6103ef565b005b5f8054610194906107a8565b80601f01602080910402602001604051908101604052809291908181526020018280546101c0906107a8565b801561020b5780601f106101e25761010080835404028352916020019161020b565b820191905f5260205f20905b8154815290600101906020018083116101ee57829003601f168201915b505050505081565b60035481565b60045f9054906101000a900473ffffffffffffffffffffffffffffffffffffffff1681565b60025f9054906101000a900460ff1681565b60045f9054906101000a900473ffffffffffffffffffffffffffffffffffffffff1673ffffffffffffffffffffffffffffffffffffffff163373ffffffffffffffffffffffffffffffffffffffff16146102df576040517f08c379a00000000000000000000000000000000000000000000000000000000081526004016102d690610822565b60405180910390fd5b8060035f8282546102f0919061086d565b925050819055508060055f8473ffffffffffffffffffffffffffffffffffffffff1673ffffffffffffffffffffffffffffffffffffffff1681526020019081526020015f205f828254610343919061086d565b925050819055505050565b6005602052805f5260405f205f915090505481565b60018054610370906107a8565b80601f016020809104026020016040519081016040528092919081815260200182805461039c906107a8565b80156103e75780601f106103be576101008083540402835291602001916103e7565b820191905f5260205f20905b8154815290600101906020018083116103ca57829003601f168201915b505050505081565b60045f9054906101000a900473ffffffffffffffffffffffffffffffffffffffff1673ffffffffffffffffffffffffffffffffffffffff163373ffffffffffffffffffffffffffffffffffffffff161461047e576040517f08c379a0000000000000000000000000000000000000000000000000000000008152600401610475906108ea565b60405180910390fd5b8060055f8473ffffffffffffffffffffffffffffffffffffffff1673ffffffffffffffffffffffffffffffffffffffff1681526020019081526020015f205410156104fe576040517f08c379a00000000000000000000000000000000000000000000000000000000081526004016104f590610952565b60405180910390fd5b8060035f82825461050f9190610970565b925050819055508060055f8473ffffffffffffffffffffffffffffffffffffffff1673ffffffffffffffffffffffffffffffffffffffff1681526020019081526020015f205f8282546105629190610970565b925050819055505050565b5f81519050919050565b5f82825260208201905092915050565b8281835e5f83830152505050565b5f601f19601f8301169050919050565b5f6105af8261056d565b6105b98185610577565b93506105c9818560208601610587565b6105d281610595565b840191505092915050565b5f6020820190508181035f8301526105f581846105a5565b905092915050565b5f819050919050565b61060f816105fd565b82525050565b5f6020820190506106285f830184610606565b92915050565b5f73ffffffffffffffffffffffffffffffffffffffff82169050919050565b5f6106578261062e565b9050919050565b6106678161064d565b82525050565b5f6020820190506106805f83018461065e565b92915050565b5f60ff82169050919050565b61069b81610686565b82525050565b5f6020820190506106b45f830184610692565b92915050565b5f5ffd5b6106c78161064d565b81146106d1575f5ffd5b50565b5f813590506106e2816106be565b92915050565b6106f1816105fd565b81146106fb575f5ffd5b50565b5f8135905061070c816106e8565b92915050565b5f5f60408385031215610728576107276106ba565b5b5f610735858286016106d4565b9250506020610746858286016106fe565b9150509250929050565b5f60208284031215610765576107646106ba565b5b5f610772848285016106d4565b91505092915050565b7f4e487b71000000000000000000000000000000000000000000000000000000005f52602260045260245ffd5b5f60028204905060018216806107bf57607f821691505b6020821081036107d2576107d161077b565b5b50919050565b7f4f6e6c7920414d4d2063616e206d696e740000000000000000000000000000005f82015250565b5f61080c601183610577565b9150610817826107d8565b602082019050919050565b5f6020820190508181035f83015261083981610800565b9050919050565b7f4e487b71000000000000000000000000000000000000000000000000000000005f52601160045260245ffd5b5f610877826105fd565b9150610882836105fd565b925082820190508082111561089a57610899610840565b5b92915050565b7f4f6e6c7920414d4d2063616e206275726e0000000000000000000000000000005f82015250565b5f6108d4601183610577565b91506108df826108a0565b602082019050919050565b5f6020820190508181035f830152610901816108c8565b9050919050565b7f496e73756666696369656e74204c502062616c616e63650000000000000000005f82015250565b5f61093c601783610577565b915061094782610908565b602082019050919050565b5f6020820190508181035f83015261096981610930565b9050919050565b5f61097a826105fd565b9150610985836105fd565b925082820390508181111561099d5761099c610840565b5b9291505056fea26469706673582212206072e59e9c6fd56aa82b7740bfe0324dcd2800c1b2a77c503a087278f4b25f2664736f6c63430008220033","linkReferences":{}},"methodIdentifiers":{"amm()":"2a943945","balanceOf(address)":"70a08231","burn(address,uint256)":"9dc29fac","decimals()":"313ce567","mint(address,uint256)":"40c10f19","name()":"06fdde03","symbol()":"95d89b41","totalSupply()":"18160ddd"},"id":20}