{"abi":[{"type":"constructor","inputs":[{"name":"_collateral","type":"address","internalType":"address"},{"name":"_borrow","type":"address","internalType":"address"}],"stateMutability":"nonpayable"},{"type":"function","name":"LIQUIDATION_THRESHOLD","inputs":[],"outputs":[{"name":"","type":"uint256","internalType":"uint256"}],"stateMutability":"view"},{"type":"function","name":"LTV","inputs":[],"outputs":[{"name":"","type":"uint256","internalType":"uint256"}],"stateMutability":"view"},{"type":"function","name":"borrow","inputs":[{"name":"amount","type":"uint256","internalType":"uint256"}],"outputs":[],"stateMutability":"nonpayable"},{"type":"function","name":"borrowToken","inputs":[],"outputs":[{"name":"","type":"address","internalType":"contract MyToken"}],"stateMutability":"view"},{"type":"function","name":"collateralToken","inputs":[],"outputs":[{"name":"","type":"address","internalType":"contract MyToken"}],"stateMutability":"view"},{"type":"function","name":"deposit","inputs":[{"name":"amount","type":"uint256","internalType":"uint256"}],"outputs":[],"stateMutability":"nonpayable"},{"type":"function","name":"deposits","inputs":[{"name":"","type":"address","internalType":"address"}],"outputs":[{"name":"","type":"uint256","internalType":"uint256"}],"stateMutability":"view"},{"type":"function","name":"liquidate","inputs":[{"name":"user","type":"address","internalType":"address"},{"name":"repayAmount","type":"uint256","internalType":"uint256"}],"outputs":[],"stateMutability":"nonpayable"},{"type":"function","name":"loans","inputs":[{"name":"","type":"address","internalType":"address"}],"outputs":[{"name":"","type":"uint256","internalType":"uint256"}],"stateMutability":"view"},{"type":"function","name":"repay","inputs":[{"name":"amount","type":"uint256","internalType":"uint256"}],"outputs":[],"stateMutability":"nonpayable"},{"type":"function","name":"withdraw","inputs":[{"name":"amount","type":"uint256","internalType":"uint256"}],"outputs":[],"stateMutability":"nonpayable"},{"type":"event","name":"Borrowed","inputs":[{"name":"user","type":"address","indexed":true,"internalType":"address"},{"name":"amount","type":"uint256","indexed":false,"internalType":"uint256"}],"anonymous":false},{"type":"event","name":"Deposited","inputs":[{"name":"user","type":"address","indexed":true,"internalType":"address"},{"name":"amount","type":"uint256","indexed":false,"internalType":"uint256"}],"anonymous":false},{"type":"event","name":"Liquidated","inputs":[{"name":"user","type":"address","indexed":true,"internalType":"address"},{"name":"liquidator","type":"address","indexed":true,"internalType":"address"},{"name":"amount","type":"uint256","indexed":false,"internalType":"uint256"}],"anonymous":false},{"type":"event","name":"Repaid","inputs":[{"name":"user","type":"address","indexed":true,"internalType":"address"},{"name":"amount","type":"uint256","indexed":false,"internalType":"uint256"}],"anonymous":false}],"bytecode":{"object":"0x608060405234801561000f575f5ffd5b5060405161140438038061140483398181016040528101906100319190610115565b815f5f6101000a81548173ffffffffffffffffffffffffffffffffffffffff021916908373ffffffffffffffffffffffffffffffffffffffff1602179055508060015f6101000a81548173ffffffffffffffffffffffffffffffffffffffff021916908373ffffffffffffffffffffffffffffffffffffffff1602179055505050610153565b5f5ffd5b5f73ffffffffffffffffffffffffffffffffffffffff82169050919050565b5f6100e4826100bb565b9050919050565b6100f4816100da565b81146100fe575f5ffd5b50565b5f8151905061010f816100eb565b92915050565b5f5f6040838503121561012b5761012a6100b7565b5b5f61013885828601610101565b925050602061014985828601610101565b9150509250929050565b6112a4806101605f395ff3fe608060405234801561000f575f5ffd5b50600436106100a7575f3560e01c806390a8ae9b1161006f57806390a8ae9b1461014f578063b2016bd41461016d578063b6b55f251461018b578063bcbaf487146101a7578063c5ebeaec146101c3578063fc7e286d146101df576100a7565b80632e1a7d4d146100ab578063371fd8e6146100c7578063456dc17a146100e357806362965d8e1461010157806373b4086b1461011f575b5f5ffd5b6100c560048036038101906100c09190610d38565b61020f565b005b6100e160048036038101906100dc9190610d38565b6104b1565b005b6100eb6105f4565b6040516100f89190610ddd565b60405180910390f35b610109610619565b6040516101169190610e05565b60405180910390f35b61013960048036038101906101349190610e59565b61061e565b6040516101469190610e05565b60405180910390f35b610157610633565b6040516101649190610e05565b60405180910390f35b610175610638565b6040516101829190610ddd565b60405180910390f35b6101a560048036038101906101a09190610d38565b61065c565b005b6101c160048036038101906101bc9190610e84565b61079e565b005b6101dd60048036038101906101d89190610d38565b610ac6565b005b6101f960048036038101906101f49190610e59565b610cec565b6040516102069190610e05565b60405180910390f35b8060025f3373ffffffffffffffffffffffffffffffffffffffff1673ffffffffffffffffffffffffffffffffffffffff1681526020019081526020015f2054101561028f576040517f08c379a000000000000000000000000000000000000000000000000000000000815260040161028690610f1c565b60405180910390fd5b5f8160025f3373ffffffffffffffffffffffffffffffffffffffff1673ffffffffffffffffffffffffffffffffffffffff1681526020019081526020015f20546102d99190610f67565b90505f60035f3373ffffffffffffffffffffffffffffffffffffffff1673ffffffffffffffffffffffffffffffffffffffff1681526020019081526020015f205411156103be575f60035f3373ffffffffffffffffffffffffffffffffffffffff1673ffffffffffffffffffffffffffffffffffffffff1681526020019081526020015f2054604b8361036c9190610f9a565b6103769190611008565b905060648110156103bc576040517f08c379a00000000000000000000000000000000000000000000000000000000081526004016103b390611082565b60405180910390fd5b505b8160025f3373ffffffffffffffffffffffffffffffffffffffff1673ffffffffffffffffffffffffffffffffffffffff1681526020019081526020015f205f82825461040a9190610f67565b925050819055505f5f9054906101000a900473ffffffffffffffffffffffffffffffffffffffff1673ffffffffffffffffffffffffffffffffffffffff1663a9059cbb33846040518363ffffffff1660e01b815260040161046c9291906110af565b6020604051808303815f875af1158015610488573d5f5f3e3d5ffd5b505050506040513d601f19601f820116820180604052508101906104ac919061110b565b505050565b60015f9054906101000a900473ffffffffffffffffffffffffffffffffffffffff1673ffffffffffffffffffffffffffffffffffffffff166323b872dd3330846040518463ffffffff1660e01b815260040161050f93929190611136565b6020604051808303815f875af115801561052b573d5f5f3e3d5ffd5b505050506040513d601f19601f8201168201806040525081019061054f919061110b565b508060035f3373ffffffffffffffffffffffffffffffffffffffff1673ffffffffffffffffffffffffffffffffffffffff1681526020019081526020015f205f82825461059c9190610f67565b925050819055503373ffffffffffffffffffffffffffffffffffffffff167f0516911bcc3a0a7412a44601057c0a0a1ec628bde049a84284bc428866534488826040516105e99190610e05565b60405180910390a250565b60015f9054906101000a900473ffffffffffffffffffffffffffffffffffffffff1681565b604b81565b6003602052805f5260405f205f915090505481565b605081565b5f5f9054906101000a900473ffffffffffffffffffffffffffffffffffffffff1681565b5f5f9054906101000a900473ffffffffffffffffffffffffffffffffffffffff1673ffffffffffffffffffffffffffffffffffffffff166323b872dd3330846040518463ffffffff1660e01b81526004016106b993929190611136565b6020604051808303815f875af11580156106d5573d5f5f3e3d5ffd5b505050506040513d601f19601f820116820180604052508101906106f9919061110b565b508060025f3373ffffffffffffffffffffffffffffffffffffffff1673ffffffffffffffffffffffffffffffffffffffff1681526020019081526020015f205f828254610746919061116b565b925050819055503373ffffffffffffffffffffffffffffffffffffffff167f2da466a7b24304f47e87fa2e1e5a81b9831ce54fec19055ce277ca2f39ba42c4826040516107939190610e05565b60405180910390a250565b5f60035f8473ffffffffffffffffffffffffffffffffffffffff1673ffffffffffffffffffffffffffffffffffffffff1681526020019081526020015f2054605060025f8673ffffffffffffffffffffffffffffffffffffffff1673ffffffffffffffffffffffffffffffffffffffff1681526020019081526020015f20546108279190610f9a565b6108319190611008565b905060648110610876576040517f08c379a000000000000000000000000000000000000000000000000000000000815260040161086d906111e8565b60405180910390fd5b60015f9054906101000a900473ffffffffffffffffffffffffffffffffffffffff1673ffffffffffffffffffffffffffffffffffffffff166323b872dd3330856040518463ffffffff1660e01b81526004016108d493929190611136565b6020604051808303815f875af11580156108f0573d5f5f3e3d5ffd5b505050506040513d601f19601f82011682018060405250810190610914919061110b565b505f8290508060025f8673ffffffffffffffffffffffffffffffffffffffff1673ffffffffffffffffffffffffffffffffffffffff1681526020019081526020015f205f8282546109659190610f67565b925050819055508260035f8673ffffffffffffffffffffffffffffffffffffffff1673ffffffffffffffffffffffffffffffffffffffff1681526020019081526020015f205f8282546109b89190610f67565b925050819055505f5f9054906101000a900473ffffffffffffffffffffffffffffffffffffffff1673ffffffffffffffffffffffffffffffffffffffff1663a9059cbb33836040518363ffffffff1660e01b8152600401610a1a9291906110af565b6020604051808303815f875af1158015610a36573d5f5f3e3d5ffd5b505050506040513d601f19601f82011682018060405250810190610a5a919061110b565b503373ffffffffffffffffffffffffffffffffffffffff168473ffffffffffffffffffffffffffffffffffffffff167fde0aa27286f5cb3a4ed853dc4823ead62d63e92cdf13de09d6aece56970721a485604051610ab89190610e05565b60405180910390a350505050565b5f6064604b60025f3373ffffffffffffffffffffffffffffffffffffffff1673ffffffffffffffffffffffffffffffffffffffff1681526020019081526020015f2054610b139190610f9a565b610b1d9190611008565b9050808260035f3373ffffffffffffffffffffffffffffffffffffffff1673ffffffffffffffffffffffffffffffffffffffff1681526020019081526020015f2054610b69919061116b565b1115610baa576040517f08c379a0000000000000000000000000000000000000000000000000000000008152600401610ba190611250565b60405180910390fd5b8160035f3373ffffffffffffffffffffffffffffffffffffffff1673ffffffffffffffffffffffffffffffffffffffff1681526020019081526020015f205f828254610bf6919061116b565b9250508190555060015f9054906101000a900473ffffffffffffffffffffffffffffffffffffffff1673ffffffffffffffffffffffffffffffffffffffff1663a9059cbb33846040518363ffffffff1660e01b8152600401610c599291906110af565b6020604051808303815f875af1158015610c75573d5f5f3e3d5ffd5b505050506040513d601f19601f82011682018060405250810190610c99919061110b565b503373ffffffffffffffffffffffffffffffffffffffff167fac59582e5396aca512fa873a2047e7f4c80f8f55d4a06cb34a78a0187f62719f83604051610ce09190610e05565b60405180910390a25050565b6002602052805f5260405f205f915090505481565b5f5ffd5b5f819050919050565b610d1781610d05565b8114610d21575f5ffd5b50565b5f81359050610d3281610d0e565b92915050565b5f60208284031215610d4d57610d4c610d01565b5b5f610d5a84828501610d24565b91505092915050565b5f73ffffffffffffffffffffffffffffffffffffffff82169050919050565b5f819050919050565b5f610da5610da0610d9b84610d63565b610d82565b610d63565b9050919050565b5f610db682610d8b565b9050919050565b5f610dc782610dac565b9050919050565b610dd781610dbd565b82525050565b5f602082019050610df05f830184610dce565b92915050565b610dff81610d05565b82525050565b5f602082019050610e185f830184610df6565b92915050565b5f610e2882610d63565b9050919050565b610e3881610e1e565b8114610e42575f5ffd5b50565b5f81359050610e5381610e2f565b92915050565b5f60208284031215610e6e57610e6d610d01565b5b5f610e7b84828501610e45565b91505092915050565b5f5f60408385031215610e9a57610e99610d01565b5b5f610ea785828601610e45565b9250506020610eb885828601610d24565b9150509250929050565b5f82825260208201905092915050565b7f4e6f7420656e6f75676820636f6c6c61746572616c00000000000000000000005f82015250565b5f610f06601583610ec2565b9150610f1182610ed2565b602082019050919050565b5f6020820190508181035f830152610f3381610efa565b9050919050565b7f4e487b71000000000000000000000000000000000000000000000000000000005f52601160045260245ffd5b5f610f7182610d05565b9150610f7c83610d05565b9250828203905081811115610f9457610f93610f3a565b5b92915050565b5f610fa482610d05565b9150610faf83610d05565b9250828202610fbd81610d05565b91508282048414831517610fd457610fd3610f3a565b5b5092915050565b7f4e487b71000000000000000000000000000000000000000000000000000000005f52601260045260245ffd5b5f61101282610d05565b915061101d83610d05565b92508261102d5761102c610fdb565b5b828204905092915050565b7f4865616c746820666163746f7220746f6f206c6f7700000000000000000000005f82015250565b5f61106c601583610ec2565b915061107782611038565b602082019050919050565b5f6020820190508181035f83015261109981611060565b9050919050565b6110a981610e1e565b82525050565b5f6040820190506110c25f8301856110a0565b6110cf6020830184610df6565b9392505050565b5f8115159050919050565b6110ea816110d6565b81146110f4575f5ffd5b50565b5f81519050611105816110e1565b92915050565b5f602082840312156111205761111f610d01565b5b5f61112d848285016110f7565b91505092915050565b5f6060820190506111495f8301866110a0565b61115660208301856110a0565b6111636040830184610df6565b949350505050565b5f61117582610d05565b915061118083610d05565b925082820190508082111561119857611197610f3a565b5b92915050565b7f55736572206973207361666500000000000000000000000000000000000000005f82015250565b5f6111d2600c83610ec2565b91506111dd8261119e565b602082019050919050565b5f6020820190508181035f8301526111ff816111c6565b9050919050565b7f45786365656473204c54560000000000000000000000000000000000000000005f82015250565b5f61123a600b83610ec2565b915061124582611206565b602082019050919050565b5f6020820190508181035f8301526112678161122e565b905091905056fea264697066735822122033b81ead06670639f34c651e50bee7a49e4ca3baa22763da70789da3479545b064736f6c63430008220033","linkReferences":{}},"methodIdentifiers":{"LIQUIDATION_THRESHOLD()":"90a8ae9b","LTV()":"62965d8e","borrow(uint256)":"c5ebeaec","borrowToken()":"456dc17a","collateralToken()":"b2016bd4","deposit(uint256)":"b6b55f25","deposits(address)":"fc7e286d","liquidate(address,uint256)":"bcbaf487","loans(address)":"73b4086b","repay(uint256)":"371fd8e6","withdraw(uint256)":"2e1a7d4d"},"id":21}