{"abi":[{"type":"constructor","inputs":[{"name":"_tokenX","type":"address","internalType":"address"},{"name":"_tokenY","type":"address","internalType":"address"}],"stateMutability":"nonpayable"},{"type":"function","name":"addLiquidity","inputs":[{"name":"amountX","type":"uint256","internalType":"uint256"},{"name":"amountY","type":"uint256","internalType":"uint256"}],"outputs":[{"name":"","type":"uint256","internalType":"uint256"}],"stateMutability":"nonpayable"},{"type":"function","name":"getAmountOut","inputs":[{"name":"amountIn","type":"uint256","internalType":"uint256"},{"name":"isXtoY","type":"bool","internalType":"bool"}],"outputs":[{"name":"","type":"uint256","internalType":"uint256"}],"stateMutability":"view"},{"type":"function","name":"lpToken","inputs":[],"outputs":[{"name":"","type":"address","internalType":"contract LPToken"}],"stateMutability":"view"},{"type":"function","name":"removeLiquidity","inputs":[{"name":"lpAmount","type":"uint256","internalType":"uint256"}],"outputs":[],"stateMutability":"nonpayable"},{"type":"function","name":"reserveX","inputs":[],"outputs":[{"name":"","type":"uint256","internalType":"uint256"}],"stateMutability":"view"},{"type":"function","name":"reserveY","inputs":[],"outputs":[{"name":"","type":"uint256","internalType":"uint256"}],"stateMutability":"view"},{"type":"function","name":"swap","inputs":[{"name":"amountIn","type":"uint256","internalType":"uint256"},{"name":"isXtoY","type":"bool","internalType":"bool"},{"name":"minAmountOut","type":"uint256","internalType":"uint256"}],"outputs":[{"name":"","type":"uint256","internalType":"uint256"}],"stateMutability":"nonpayable"},{"type":"function","name":"tokenX","inputs":[],"outputs":[{"name":"","type":"address","internalType":"contract MyToken"}],"stateMutability":"view"},{"type":"function","name":"tokenY","inputs":[],"outputs":[{"name":"","type":"address","internalType":"contract MyToken"}],"stateMutability":"view"},{"type":"event","name":"LiquidityAdded","inputs":[{"name":"user","type":"address","indexed":true,"internalType":"address"},{"name":"amountX","type":"uint256","indexed":false,"internalType":"uint256"},{"name":"amountY","type":"uint256","indexed":false,"internalType":"uint256"},{"name":"lpMinted","type":"uint256","indexed":false,"internalType":"uint256"}],"anonymous":false},{"type":"event","name":"LiquidityRemoved","inputs":[{"name":"user","type":"address","indexed":true,"internalType":"address"},{"name":"amountX","type":"uint256","indexed":false,"internalType":"uint256"},{"name":"amountY","type":"uint256","indexed":false,"internalType":"uint256"},{"name":"lpBurned","type":"uint256","indexed":false,"internalType":"uint256"}],"anonymous":false},{"type":"event","name":"Swap","inputs":[{"name":"user","type":"address","indexed":true,"internalType":"address"},{"name":"amountIn","type":"uint256","indexed":false,"internalType":"uint256"},{"name":"amountOut","type":"uint256","indexed":false,"internalType":"uint256"},{"name":"isXtoY","type":"bool","indexed":false,"internalType":"bool"}],"anonymous":false}],"bytecode":{"object":"0x608060405234801561000f575f5ffd5b5060405161214f38038061214f83398181016040528101906100319190610187565b815f5f6101000a81548173ffffffffffffffffffffffffffffffffffffffff021916908373ffffffffffffffffffffffffffffffffffffffff1602179055508060015f6101000a81548173ffffffffffffffffffffffffffffffffffffffff021916908373ffffffffffffffffffffffffffffffffffffffff1602179055506040516100bc9061011c565b604051809103905ff0801580156100d5573d5f5f3e3d5ffd5b5060025f6101000a81548173ffffffffffffffffffffffffffffffffffffffff021916908373ffffffffffffffffffffffffffffffffffffffff16021790555050506101c5565b610dfc8061135383390190565b5f5ffd5b5f73ffffffffffffffffffffffffffffffffffffffff82169050919050565b5f6101568261012d565b9050919050565b6101668161014c565b8114610170575f5ffd5b50565b5f815190506101818161015d565b92915050565b5f5f6040838503121561019d5761019c610129565b5b5f6101aa85828601610173565b92505060206101bb85828601610173565b9150509250929050565b611181806101d25f395ff3fe608060405234801561000f575f5ffd5b5060043610610091575f3560e01c80635fcbd285116100645780635fcbd285146101315780639c8f9f231461014f5780639cd441da1461016b578063b7d19fc41461019b578063fadfa65b146101b957610091565b806308eabdda1461009557806311106ee2146100b357806316dc165b146100e35780634312ae3114610101575b5f5ffd5b61009d6101d7565b6040516100aa9190610bf0565b60405180910390f35b6100cd60048036038101906100c89190610c6c565b6101dd565b6040516100da9190610bf0565b60405180910390f35b6100eb610240565b6040516100f89190610d24565b60405180910390f35b61011b60048036038101906101169190610d3d565b610264565b6040516101289190610bf0565b60405180910390f35b610139610613565b6040516101469190610dad565b60405180910390f35b61016960048036038101906101649190610dc6565b610638565b005b61018560048036038101906101809190610df1565b61094b565b6040516101929190610bf0565b60405180910390f35b6101a3610bad565b6040516101b09190610d24565b60405180910390f35b6101c1610bd2565b6040516101ce9190610bf0565b60405180910390f35b60035481565b5f811561021157826003546101f29190610e5c565b836004546102009190610e8f565b61020a9190610efd565b905061023a565b8260045461021f9190610e5c565b8360035461022d9190610e8f565b6102379190610efd565b90505b92915050565b5f5f9054906101000a900473ffffffffffffffffffffffffffffffffffffffff1681565b5f5f6103e86103e5866102779190610e8f565b6102819190610efd565b90505f61028e82866101dd565b9050838110156102d3576040517f08c379a00000000000000000000000000000000000000000000000000000000081526004016102ca90610f87565b60405180910390fd5b8415610449575f5f9054906101000a900473ffffffffffffffffffffffffffffffffffffffff1673ffffffffffffffffffffffffffffffffffffffff166323b872dd3330896040518463ffffffff1660e01b815260040161033693929190610fc5565b6020604051808303815f875af1158015610352573d5f5f3e3d5ffd5b505050506040513d601f19601f82011682018060405250810190610376919061100e565b5060015f9054906101000a900473ffffffffffffffffffffffffffffffffffffffff1673ffffffffffffffffffffffffffffffffffffffff1663a9059cbb33836040518363ffffffff1660e01b81526004016103d3929190611039565b6020604051808303815f875af11580156103ef573d5f5f3e3d5ffd5b505050506040513d601f19601f82011682018060405250810190610413919061100e565b508560035f8282546104259190610e5c565b925050819055508060045f82825461043d9190611060565b925050819055506105b5565b60015f9054906101000a900473ffffffffffffffffffffffffffffffffffffffff1673ffffffffffffffffffffffffffffffffffffffff166323b872dd3330896040518463ffffffff1660e01b81526004016104a793929190610fc5565b6020604051808303815f875af11580156104c3573d5f5f3e3d5ffd5b505050506040513d601f19601f820116820180604052508101906104e7919061100e565b505f5f9054906101000a900473ffffffffffffffffffffffffffffffffffffffff1673ffffffffffffffffffffffffffffffffffffffff1663a9059cbb33836040518363ffffffff1660e01b8152600401610543929190611039565b6020604051808303815f875af115801561055f573d5f5f3e3d5ffd5b505050506040513d601f19601f82011682018060405250810190610583919061100e565b508560045f8282546105959190610e5c565b925050819055508060035f8282546105ad9190611060565b925050819055505b3373ffffffffffffffffffffffffffffffffffffffff167fcc65e4d9060ece2ecf63011ac580550b04c8daeba63fac4dfe8669353cd888598783886040516105ff939291906110a2565b60405180910390a280925050509392505050565b60025f9054906101000a900473ffffffffffffffffffffffffffffffffffffffff1681565b5f60025f9054906101000a900473ffffffffffffffffffffffffffffffffffffffff1673ffffffffffffffffffffffffffffffffffffffff166318160ddd6040518163ffffffff1660e01b8152600401602060405180830381865afa1580156106a3573d5f5f3e3d5ffd5b505050506040513d601f19601f820116820180604052508101906106c791906110eb565b90505f81600354846106d99190610e8f565b6106e39190610efd565b90505f82600454856106f59190610e8f565b6106ff9190610efd565b905060025f9054906101000a900473ffffffffffffffffffffffffffffffffffffffff1673ffffffffffffffffffffffffffffffffffffffff16639dc29fac33866040518363ffffffff1660e01b815260040161075d929190611039565b5f604051808303815f87803b158015610774575f5ffd5b505af1158015610786573d5f5f3e3d5ffd5b505050508160035f82825461079b9190611060565b925050819055508060045f8282546107b39190611060565b925050819055505f5f9054906101000a900473ffffffffffffffffffffffffffffffffffffffff1673ffffffffffffffffffffffffffffffffffffffff1663a9059cbb33846040518363ffffffff1660e01b8152600401610815929190611039565b6020604051808303815f875af1158015610831573d5f5f3e3d5ffd5b505050506040513d601f19601f82011682018060405250810190610855919061100e565b5060015f9054906101000a900473ffffffffffffffffffffffffffffffffffffffff1673ffffffffffffffffffffffffffffffffffffffff1663a9059cbb33836040518363ffffffff1660e01b81526004016108b2929190611039565b6020604051808303815f875af11580156108ce573d5f5f3e3d5ffd5b505050506040513d601f19601f820116820180604052508101906108f2919061100e565b503373ffffffffffffffffffffffffffffffffffffffff167f1dc8bb69df2b8e91fbdcbfcf93d951b3f0000f085a95fe3f7946d6161439245d83838760405161093d93929190611116565b60405180910390a250505050565b5f5f5f9054906101000a900473ffffffffffffffffffffffffffffffffffffffff1673ffffffffffffffffffffffffffffffffffffffff166323b872dd3330866040518463ffffffff1660e01b81526004016109a993929190610fc5565b6020604051808303815f875af11580156109c5573d5f5f3e3d5ffd5b505050506040513d601f19601f820116820180604052508101906109e9919061100e565b5060015f9054906101000a900473ffffffffffffffffffffffffffffffffffffffff1673ffffffffffffffffffffffffffffffffffffffff166323b872dd3330856040518463ffffffff1660e01b8152600401610a4893929190610fc5565b6020604051808303815f875af1158015610a64573d5f5f3e3d5ffd5b505050506040513d601f19601f82011682018060405250810190610a88919061100e565b505f8284610a969190610e5c565b90508360035f828254610aa99190610e5c565b925050819055508260045f828254610ac19190610e5c565b9250508190555060025f9054906101000a900473ffffffffffffffffffffffffffffffffffffffff1673ffffffffffffffffffffffffffffffffffffffff166340c10f1933836040518363ffffffff1660e01b8152600401610b24929190611039565b5f604051808303815f87803b158015610b3b575f5ffd5b505af1158015610b4d573d5f5f3e3d5ffd5b505050503373ffffffffffffffffffffffffffffffffffffffff167f64b83944e79c3ce8d4c297411de637c3e102d064677aac0c163976ebdcd6f50e858584604051610b9b93929190611116565b60405180910390a28091505092915050565b60015f9054906101000a900473ffffffffffffffffffffffffffffffffffffffff1681565b60045481565b5f819050919050565b610bea81610bd8565b82525050565b5f602082019050610c035f830184610be1565b92915050565b5f5ffd5b610c1681610bd8565b8114610c20575f5ffd5b50565b5f81359050610c3181610c0d565b92915050565b5f8115159050919050565b610c4b81610c37565b8114610c55575f5ffd5b50565b5f81359050610c6681610c42565b92915050565b5f5f60408385031215610c8257610c81610c09565b5b5f610c8f85828601610c23565b9250506020610ca085828601610c58565b9150509250929050565b5f73ffffffffffffffffffffffffffffffffffffffff82169050919050565b5f819050919050565b5f610cec610ce7610ce284610caa565b610cc9565b610caa565b9050919050565b5f610cfd82610cd2565b9050919050565b5f610d0e82610cf3565b9050919050565b610d1e81610d04565b82525050565b5f602082019050610d375f830184610d15565b92915050565b5f5f5f60608486031215610d5457610d53610c09565b5b5f610d6186828701610c23565b9350506020610d7286828701610c58565b9250506040610d8386828701610c23565b9150509250925092565b5f610d9782610cf3565b9050919050565b610da781610d8d565b82525050565b5f602082019050610dc05f830184610d9e565b92915050565b5f60208284031215610ddb57610dda610c09565b5b5f610de884828501610c23565b91505092915050565b5f5f60408385031215610e0757610e06610c09565b5b5f610e1485828601610c23565b9250506020610e2585828601610c23565b9150509250929050565b7f4e487b71000000000000000000000000000000000000000000000000000000005f52601160045260245ffd5b5f610e6682610bd8565b9150610e7183610bd8565b9250828201905080821115610e8957610e88610e2f565b5b92915050565b5f610e9982610bd8565b9150610ea483610bd8565b9250828202610eb281610bd8565b91508282048414831517610ec957610ec8610e2f565b5b5092915050565b7f4e487b71000000000000000000000000000000000000000000000000000000005f52601260045260245ffd5b5f610f0782610bd8565b9150610f1283610bd8565b925082610f2257610f21610ed0565b5b828204905092915050565b5f82825260208201905092915050565b7f536c69707061676520746f6f20686967680000000000000000000000000000005f82015250565b5f610f71601183610f2d565b9150610f7c82610f3d565b602082019050919050565b5f6020820190508181035f830152610f9e81610f65565b9050919050565b5f610faf82610caa565b9050919050565b610fbf81610fa5565b82525050565b5f606082019050610fd85f830186610fb6565b610fe56020830185610fb6565b610ff26040830184610be1565b949350505050565b5f8151905061100881610c42565b92915050565b5f6020828403121561102357611022610c09565b5b5f61103084828501610ffa565b91505092915050565b5f60408201905061104c5f830185610fb6565b6110596020830184610be1565b9392505050565b5f61106a82610bd8565b915061107583610bd8565b925082820390508181111561108d5761108c610e2f565b5b92915050565b61109c81610c37565b82525050565b5f6060820190506110b55f830186610be1565b6110c26020830185610be1565b6110cf6040830184611093565b949350505050565b5f815190506110e581610c0d565b92915050565b5f60208284031215611100576110ff610c09565b5b5f61110d848285016110d7565b91505092915050565b5f6060820190506111295f830186610be1565b6111366020830185610be1565b6111436040830184610be1565b94935050505056fea2646970667358221220689ff972ad0eda33e6c109f9d61ceb1716c26c4bd51dfed6c31e2902e42115ad64736f6c6343000822003360806040526040518060400160405280600c81526020017f414d4d204c5020546f6b656e00000000000000000000000000000000000000008152505f90816100479190610347565b506040518060400160405280600381526020017f414c5000000000000000000000000000000000000000000000000000000000008152506001908161008c9190610347565b50601260025f6101000a81548160ff021916908360ff1602179055503480156100b3575f5ffd5b503360045f6101000a81548173ffffffffffffffffffffffffffffffffffffffff021916908373ffffffffffffffffffffffffffffffffffffffff160217905550610416565b5f81519050919050565b7f4e487b71000000000000000000000000000000000000000000000000000000005f52604160045260245ffd5b7f4e487b71000000000000000000000000000000000000000000000000000000005f52602260045260245ffd5b5f600282049050600182168061017457607f821691505b60208210810361018757610186610130565b5b50919050565b5f819050815f5260205f209050919050565b5f6020601f8301049050919050565b5f82821b905092915050565b5f600883026101e97fffffffffffffffffffffffffffffffffffffffffffffffffffffffffffffffff826101ae565b6101f386836101ae565b95508019841693508086168417925050509392505050565b5f819050919050565b5f819050919050565b5f61023761023261022d8461020b565b610214565b61020b565b9050919050565b5f819050919050565b6102508361021d565b61026461025c8261023e565b8484546101ba565b825550505050565b5f5f905090565b61027b61026c565b610286818484610247565b505050565b5f5b828110156102ac576102a15f828401610273565b60018101905061028d565b505050565b601f8211156102ff57828211156102fe576102cb8161018d565b6102d48361019f565b6102dd8561019f565b60208610156102ea575f90505b8083016102f98284038261028b565b505050505b5b505050565b5f82821c905092915050565b5f61031f5f1984600802610304565b1980831691505092915050565b5f6103378383610310565b9150826002028217905092915050565b610350826100f9565b67ffffffffffffffff81111561036957610368610103565b5b610373825461015d565b61037e8282856102b1565b5f60209050601f8311600181146103af575f841561039d578287015190505b6103a7858261032c565b86555061040e565b601f1984166103bd8661018d565b5f5b828110156103e4578489015182556001820191506020850194506020810190506103bf565b8683101561040157848901516103fd601f891682610310565b8355505b6001600288020188555050505b505050505050565b6109d9806104235f395ff3fe608060405234801561000f575f5ffd5b5060043610610086575f3560e01c806340c10f191161005957806340c10f191461010257806370a082311461011e57806395d89b411461014e5780639dc29fac1461016c57610086565b806306fdde031461008a57806318160ddd146100a85780632a943945146100c6578063313ce567146100e4575b5f5ffd5b610092610188565b60405161009f91906105dd565b60405180910390f35b6100b0610213565b6040516100bd9190610615565b60405180910390f35b6100ce610219565b6040516100db919061066d565b60405180910390f35b6100ec61023e565b6040516100f991906106a1565b60405180910390f35b61011c60048036038101906101179190610712565b610250565b005b61013860048036038101906101339190610750565b61034e565b6040516101459190610615565b60405180910390f35b610156610363565b60405161016391906105dd565b60405180910390f35b61018660048036038101906101819190610712565b6103ef565b005b5f8054610194906107a8565b80601f01602080910402602001604051908101604052809291908181526020018280546101c0906107a8565b801561020b5780601f106101e25761010080835404028352916020019161020b565b820191905f5260205f20905b8154815290600101906020018083116101ee57829003601f168201915b505050505081565b60035481565b60045f9054906101000a900473ffffffffffffffffffffffffffffffffffffffff1681565b60025f9054906101000a900460ff1681565b60045f9054906101000a900473ffffffffffffffffffffffffffffffffffffffff1673ffffffffffffffffffffffffffffffffffffffff163373ffffffffffffffffffffffffffffffffffffffff16146102df576040517f08c379a00000000000000000000000000000000000000000000000000000000081526004016102d690610822565b60405180910390fd5b8060035f8282546102f0919061086d565b925050819055508060055f8473ffffffffffffffffffffffffffffffffffffffff1673ffffffffffffffffffffffffffffffffffffffff1681526020019081526020015f205f828254610343919061086d565b925050819055505050565b6005602052805f5260405f205f915090505481565b60018054610370906107a8565b80601f016020809104026020016040519081016040528092919081815260200182805461039c906107a8565b80156103e75780601f106103be576101008083540402835291602001916103e7565b820191905f5260205f20905b8154815290600101906020018083116103ca57829003601f168201915b505050505081565b60045f9054906101000a900473ffffffffffffffffffffffffffffffffffffffff1673ffffffffffffffffffffffffffffffffffffffff163373ffffffffffffffffffffffffffffffffffffffff161461047e576040517f08c379a0000000000000000000000000000000000000000000000000000000008152600401610475906108ea565b60405180910390fd5b8060055f8473ffffffffffffffffffffffffffffffffffffffff1673ffffffffffffffffffffffffffffffffffffffff1681526020019081526020015f205410156104fe576040517f08c379a00000000000000000000000000000000000000000000000000000000081526004016104f590610952565b60405180910390fd5b8060035f82825461050f9190610970565b925050819055508060055f8473ffffffffffffffffffffffffffffffffffffffff1673ffffffffffffffffffffffffffffffffffffffff1681526020019081526020015f205f8282546105629190610970565b925050819055505050565b5f81519050919050565b5f82825260208201905092915050565b8281835e5f83830152505050565b5f601f19601f8301169050919050565b5f6105af8261056d565b6105b98185610577565b93506105c9818560208601610587565b6105d281610595565b840191505092915050565b5f6020820190508181035f8301526105f581846105a5565b905092915050565b5f819050919050565b61060f816105fd565b82525050565b5f6020820190506106285f830184610606565b92915050565b5f73ffffffffffffffffffffffffffffffffffffffff82169050919050565b5f6106578261062e565b9050919050565b6106678161064d565b82525050565b5f6020820190506106805f83018461065e565b92915050565b5f60ff82169050919050565b61069b81610686565b82525050565b5f6020820190506106b45f830184610692565b92915050565b5f5ffd5b6106c78161064d565b81146106d1575f5ffd5b50565b5f813590506106e2816106be565b92915050565b6106f1816105fd565b81146106fb575f5ffd5b50565b5f8135905061070c816106e8565b92915050565b5f5f60408385031215610728576107276106ba565b5b5f610735858286016106d4565b9250506020610746858286016106fe565b9150509250929050565b5f60208284031215610765576107646106ba565b5b5f610772848285016106d4565b91505092915050565b7f4e487b71000000000000000000000000000000000000000000000000000000005f52602260045260245ffd5b5f60028204905060018216806107bf57607f821691505b6020821081036107d2576107d161077b565b5b50919050565b7f4f6e6c7920414d4d2063616e206d696e740000000000000000000000000000005f82015250565b5f61080c601183610577565b9150610817826107d8565b602082019050919050565b5f6020820190508181035f83015261083981610800565b9050919050565b7f4e487b71000000000000000000000000000000000000000000000000000000005f52601160045260245ffd5b5f610877826105fd565b9150610882836105fd565b925082820190508082111561089a57610899610840565b5b92915050565b7f4f6e6c7920414d4d2063616e206275726e0000000000000000000000000000005f82015250565b5f6108d4601183610577565b91506108df826108a0565b602082019050919050565b5f6020820190508181035f830152610901816108c8565b9050919050565b7f496e73756666696369656e74204c502062616c616e63650000000000000000005f82015250565b5f61093c601783610577565b915061094782610908565b602082019050919050565b5f6020820190508181035f83015261096981610930565b9050919050565b5f61097a826105fd565b9150610985836105fd565b925082820390508181111561099d5761099c610840565b5b9291505056fea26469706673582212206072e59e9c6fd56aa82b7740bfe0324dcd2800c1b2a77c503a087278f4b25f2664736f6c63430008220033","linkReferences":{}},"methodIdentifiers":{"addLiquidity(uint256,uint256)":"9cd441da","getAmountOut(uint256,bool)":"11106ee2","lpToken()":"5fcbd285","removeLiquidity(uint256)":"9c8f9f23","reserveX()":"08eabdda","reserveY()":"fadfa65b","swap(uint256,bool,uint256)":"4312ae31","tokenX()":"16dc165b","tokenY()":"b7d19fc4"},"id":19}